:060000000A128A1110280B
:10000800FE00030E83160313AD000A08AE007F0836
:10001800AF000A168A1155280A128A111328831666
:1000280003130A128A11FE270A128A11DF008317A6
:10003800DB308400E6300A128A1503200A128A117E
:100048008313D0308400DF300A128A1503200A1285
:100058008A1183120313EF0183010A128A113428CB
:100068000A168A1587240A128A1183120313861F17
:100078003E283F283928831603135F03031D4528AC
:100088004628A72901308312031389009F184D2899
:100098004E28A4281F0C83160317D800580C0F39B4
:1000A800003A031D582859286028831203131F0893
:1000B800C33904389F009A28831203131F0C831630
:1000C8000317D800580C0F39013A031D6C286D2806
:1000D8007428831203131F08C33908389F009A280D
:1000E800831203131F0C83160317D800580C0F39FB
:1000F800023A031D802881288828831203131F08C9
:10010800C3390C389F009A28831203131F0C8316D7
:100118000317D800580C0F39033A031D9428952863
:100128009A28C330831203139F059A280230831636
:100138000317D800D80B9E280000831203139F14BE
:10014800831603135C0883160317D800D901831696
:1001580003135708831603175906031DB928831676
:10016800031356088316031758060319BC28BD281D
:10017800F02883160313570883160317D90083162C
:100188000313560883160317D8000310D90CD80C8C
:100198000310D90CD80C5808831203139500831642
:1001A80003135608033983160317D800D80E831291
:1001B80003131708831603175806CF3958068312F6
:1001C8000313970083160313560883160317D800E2
:1001D800580883160313DC00831603176208D80037
:1001E800D901831603135508831603175906031DEF
:1001F8000329831603135408831603175806031993
:100208000629072957298316031355088316031748
:10021800D90083160313540883160317D800031054
:10022800D90CD80C0310D90CD80C58088312031316
:100238009B00831603135408013983160317D8004B
:10024800D80E831203131D08831603175806EF39B7
:100258005806831203139D0083160313550883164B
:100268000317D90083160313540883160317D800FD
:100278000310D90CD80C58080139DA00DA0EDA0D57
:10028800831203131D08831603175A06DF395A060B
:10029800831203139D008316031354088316031750
:1002A800D8005808E2006108D800D9018316031362
:1002B8005308831603175906031D68298316031369
:1002C800520883160317580603196B296C297E29CF
:1002D8008316031352088312031393008316031320
:1002E800141C772978297229520883160317D80015
:1002F8005808E1006008D800D90183160313510893
:10030800831603175906031D8F29831603135008F4
:10031800831603175806031992299329B02C8316BC
:100328000313500883120313930083160313141C3A
:100338009E299F299929500883160317D800580821
:10034800E000B02CB02C02305F06031DAC29AD29AB
:10035800122B0230831203138900831603135A08E1
:10036800033983160317D800580883160313D800D7
:100378005808031DC029C129152A5908FC398316B4
:100388000317D800580883160313D90083160317D8
:10039800D1016030D8005808D2001930D30000309D
:1003A800D4009730D5000030D600831603135908BF
:1003B8000A168A15A9230A128A11831603175208E6
:1003C80083160313D70083160317510883160313E4
:1003D800D600570883160317D90083160313560847
:1003E80083160317D8000310D90CD80C0310D90CA6
:1003F800D80C580883120313950083160313560864
:10040800033983160317D800D80E8312031317086D
:10041800831603175806CF3958068312031397001B
:10042800B02C5803031D192A1A2A8D2A5908FC3999
:1004380083160317D800580883160313D9008316A8
:100448000317D1016030D8005808D2001930D30002
:100458000030D4009730D5000030D600831603133F
:1004680059080A168A15A9230A128A11831603172E
:10047800520883160313D5008316031751088316F1
:100488000313D400550883160317D90083160313E2
:10049800540883160317D8000310D90CD80C03107E
:1004A800D90CD80C5808831203139B008316031326
:1004B8005408013983160317D800D80E8312031382
:1004C8001D08831603175806EF39580683120313BD
:1004D8009D0083160313550883160317D900831646
:1004E8000313540883160317D8000310D90CD80C2B
:1004F80058080139DA00DA0EDA0D831203131D08E1
:10050800831603175A06DF395A06831203139D0010
:10051800B02C02305806031D922A932AD42A831637
:100528000317D1016330D8005808D2001930D3001E
:100538000030D4009730D5000030D600831603135E
:1005480059080A168A15A9230A128A11FC3083163B
:1005580003175105D90000305205DA005908023E48
:1005680083160313D200831603175A080318013E93
:10057800003E83160313D300523083160317D800A6
:10058800D80BC42A000083160313520883120313DE
:10059800930083160313141CD22AD32ACD2AB02C15
:1005A80003305806031DD92ADA2AA6298316031709
:1005B800D1016330D8005808D2001930D300003078
:1005C800D4005830D5000030D600831603135908DC
:1005D8000A168A15A9230A128A11FC3083160317F2
:1005E8005105D90000305205DA005908033E831638
:1005F8000313D000831603175A080318013E003E60
:1006080083160313D1005008831203139300831633
:100618000313141C102B112B0B2BB02C03305F066B
:10062800031D172B182BB02C0430831203138900D9
:10063800831603175D03031D222B232BE72B0130A1
:100648000A128A11EF270A128A1183160317D80093
:10065800580883160313DB005B0883160317D800BA
:1006680002300310D80CFF3E031D352B58088312A7
:1006780003139500831603135B08033983160317C6
:10068800D800D80E831203131708831603175806C9
:10069800CF39580683120313970052308316031775
:1006A800D800D80B552B000002300A128A11EF2708
:1006B8000A128A1183160317D800580883160313E1
:1006C800DB005B0883160317D80002300310D80C30
:1006D800FF3E031D6A2B5808831203139B008316E1
:1006E80003135B08013983160317D800D80E831249
:1006F80003131D08831603175806EF39580683128B
:1007080003139D00831603135B0883160317D80091
:100718000310580C0139D900D90ED90D83120313CF
:100728001D08831603175906DF3959068312031368
:100738009D00523083160317D800D80BA12B000058
:1007480003300A128A11EF270A128A118316031737
:10075800D800580883160313DB005B08FC39023EF7
:1007680083120313930083160313141CBC2BBD2B95
:10077800B72B523083160317D800D80BC12B0000B3
:1007880004300A128A11EF270A128A1183160317F6
:10079800D800580883160313DB005B08FC39033EB6
:1007A80083120313930083160313141CDC2BDD2B15
:1007B800D72B523083160317D800D80BE12B000033
:1007C80083160317DD015C03031DEB2BEC2BB02C08
:1007D80005300A128A11EF270A128A1183160317A5
:1007E800D800580883160313DB005B088316031729
:1007F800D80002300310D80CFF3E031DFE2B58080A
:10080800831203139500831603135B0803398316B9
:100818000317D800D80E831203131708831603177B
:100828005806CF395806831203139700523083169F
:100838000317D800D80B1E2C000006300A128A11A4
:10084800EF270A128A1183160317D800580883164F
:100858000313DB005B0883160317D800023003106C
:10086800D80CFF3E031D332C5808831203139B003A
:10087800831603135B08013983160317D800D80EB3
:10088800831203131D08831603175806EF395806F9
:10089800831203139D00831603135B088316031743
:1008A800D8000310580C0139D900D90ED90D83127C
:1008B80003131D08831603175906DF3959068312D7
:1008C80003139D00523083160317D800D80B6A2CE7
:1008D800000007300A128A11EF270A128A118316BC
:1008E8000317D800580883160313DB005B08FC398C
:1008F800023E83120313930083160313141C852CE2
:10090800862C802C523083160317D800D80B8A2CDB
:10091800000008300A128A11EF270A128A1183167A
:100928000317D800580883160313DB005B08FC394B
:10093800033E83120313930083160313141CA52C80
:10094800A62CA02C523083160317D800D80BAA2C3B
:10095800000083160317DC01831603175F03031DCA
:10096800B62CB72C222D83160313560883160317AB
:10097800D800580883160313B00001300A168A15E8
:10098800CA200A128A11043083160317D9003D3091
:10099800D800D80BCD2CD90BCD2C831603135408B3
:1009A80083160317D800580883160313B0000230C3
:1009B8000A168A15CA200A128A11043083160317E8
:1009C800D9003D30D800D80BE72CD90BE72C83167B
:1009D8000313520883160317D80058088316031305
:1009E800B00003300A168A15CA200A128A11043088
:1009F80083160317D9003D30D800D80B012DD90B29
:100A0800012D83160313500883160317D8005808BE
:100A180083160313B00004300A168A15CA200A1276
:100A28008A11043083160317D9003D30D800D80B3B
:100A38001B2DD90B1B2D83160317DF015E03031D26
:100A4800262D272D392883160313560883160317D6
:100A5800D800580883160313B00005300A168A1503
:100A6800CA200A128A11043083160317D9003D30B0
:100A7800D800D80B3D2DD90B3D2D831603135408F0
:100A880083160317D800580883160313B0000630DE
:100A98000A168A15CA200A128A1104308316031707
:100AA800D9003D30D800D80B572DD90B572D8316B8
:100AB8000313520883160317D80058088316031324
:100AC800B00007300A168A15CA200A128A110430A3
:100AD80083160317D9003D30D800D80B712DD90BD8
:100AE800712D83160313500883160317D80058086E
:100AF80083160313B00008300A168A15CA200A1292
:100B08008A11043083160317D9003D30D800D80B5A
:100B18008B2DD90B8B2D83160317DE0139280A126A
:100B28008A1110288312031327088039A80028087F
:100B3800B1002708A8002807A9002908B800A61F9F
:100B4800A62DA72DA82D381438080319AC2DAD2DC6
:100B5800BD2D380A031DB12DB22DBA2D0030A700C6
:100B68000030A6000030A5000030A400A617A70199
:100B7800C52D0030A7000030A6000030A5000030C9
:100B8800A40023088039A8002808B1062308A80073
:100B98002807A9002908B900A21FD32DD42DD52DC7
:100BA800391439080319D92DDA2DEA2D390A031D0C
:100BB800DE2DDF2DE72D0030A3000030A20000302D
:100BC800A1000030A000A217A301F22D0030A3005D
:100BD8000030A2000030A1000030A0002308220449
:100BE80021042004031DF92DFA2D132E0030A7002F
:100BF8000030A6000030A5000030A4008030A60414
:100C08007F30A7043108A8002808A7042708A300F4
:100C18002608A2002508A1002408A000722F380881
:100C2800031D172E182E212E0030A3000030A2001D
:100C38000030A1000030A000722F3808A800A901D8
:100C48002908AB0039082802AA00031CAB032A08AC
:100C58007F3EB2002B080318013E003EB300270870
:100C6800B0002608AF002508AE002408AD0000300B
:100C7800A7000030A6000030A5000030A400003016
:100C8800B7000030B6000030B5000030B400B9013C
:100C9800972E39080319512E522E722E0130A800B2
:100CA8000310AD0DAE0DAF0DB00DA80B542E0130D5
:100CB800A8000310A40DA50DA60DA70DA80B5D2E69
:100CC800B71F672E682E692E24140130A800031060
:100CD800B40DB50DB60DB70DA80B6B2E2308300259
:100CE800031D802E22082F02031D802E21082E02AC
:100CF800031D802E20082D02031C832E842E932E84
:100D080037172008AD022108031C210FAE02220864
:100D1800031C220FAF022308031C230FB00201306B
:100D2800A8002808B9071A303902031C9C2E9D2EEA
:100D38004D2E30082F042E042D040319A42EA52EA1
:100D4800C42E3414C42E0130A8000310A40DA50D20
:100D5800A60DA70DA80BA92EB71FB32EB42EB52E1E
:100D680024140130A8000310B40DB50DB60DB70D4D
:100D7800A80BB72EFF30B2070318B30AFF30B3072A
:100D8800A61FC72EC82EA72EB901B71FCC2ECD2E51
:100D9800E92EFF303405A800FF303505A900FF30E3
:100DA8003605AA007F303705AB002B082A04290432
:100DB80028040319E02EE12EE42EB901B90AE92E20
:100DC800241CE72EE82EE92EE12E39080319ED2E12
:100DD800EE2E1F2F0130A407003003180130A5079D
:100DE800003003180130A607003003180130A707A8
:100DF800271CFF2E002F1F2F2408A8002508A90054
:100E08002608AA002708AB000130AC002B0DAB0C5C
:100E1800AA0CA90CA80CAC0B0A2F2B08A7002A08AF
:100E2800A6002908A5002808A4000130B207031865
:100E3800B30A0030B3073308803AFF0080307F02DE
:100E4800031D282FFF303202031C2B2F2C2F3A2F83
:100E5800FF3083120313B2000030B3000030A70044
:100E68000030A6000030A5000030A4008312031350
:100E78003308803AFF0080307F02031D452F013080
:100E880032020318482F492F562F83120313B20139
:100E9800B3010030A7000030A6000030A5000030E4
:100EA800A400B101831203133208A8002808B8006F
:100EB800381C5F2F602F622FA617662F7F30A8007F
:100EC8002808A6053808A8000310280CA900290836
:100ED800A7003108A8002808A7040A2E0800031054
:100EE80083160317480D490DCA004A08D000500858
:100EF800031D7F2F802F892F0030C9000030C800C4
:100F08000030C7000030C600EE2F4608CA00470868
:100F1800CB004808CC004908CD001F300310CD0C89
:100F2800CC0CCB0CCA0CFF3E031D922F4A08CE00F6
:100F38004E08CF00C817FF30C605FF30C705FF3081
:100F4800C8050030C9059630D002D01FAC2FAD2F90
:100F5800C72F5008803A973E0318B32FB42FB52FE8
:100F6800802F01300310C90CC80CC70CC60CFF3EFB
:100F7800031DB62F0130CA004A08D007031DC52F2C
:100F8800C62FB52FDE2F20305002031CCC2FCD2FBB
:100F9800D92F802F0130CA000310C60DC70DC80D08
:100FA800C90DCA0BD02F0130D0025008031DDD2F08
:100FB800DE2FCE2F4F080319E22FE32FEE2FC6099D
:100FC800C709C809C909C60A0319C70A0319C80AFB
:100FD8000319C90A080083160313B00030088312E6
:100FE80003178D00831603178C130C148312031731
:060FF8000C0808000334A0
:1010060064008001840A04060319003404060428D7
:101016008316031345088039C6004608831603174E
:101026009400831603134508C6004607C700470801
:10103600831603179B0083160313C41F2328242833
:101046002728831603171B14831603171B08031977
:101056002D282E2841281B0A031D322833283D2817
:10106600003083160313C5000030C4000030C300EF
:101076000030C2000313C417C5014B280030831685
:101086000313C5000030C4000030C3000030C200A6
:1010960041088039C600460883160317940683164E
:1010A60003134108C6004607C700470883160317FF
:1010B6009C0083160313C01F6128622865288316C7
:1010C60003171C14831603171C0803196B286C28B6
:1010D6007F281C0A031D702871287B280030831680
:1010E6000313C1000030C0000030BF000030BE0056
:1010F6000313C017C1018928003083160313C100EA
:101106000030C0000030BF000030BE00410840047F
:101116003F043E04031D90289128AE280030C500E8
:101126000030C4000030C3000030C2008030C40468
:101136007F30C50483160317140883160313C600ED
:101146004608C5044508C1004408C0004308BF005E
:101156004208BE00AA2A831603171B08031DB428DB
:10116600B528C028003083160313C1000030C00024
:101176000030BF000030BE00AA2A1B0883160313E6
:10118600C600C7014708C900831603171C08831643
:1011960003134602C800031CC90348087F3E831692
:1011A600031795008316031349080318013E003EF2
:1011B6008316031796008316031345088316031731
:1011C60093008316031344088316031792008316AD
:1011D600031343088316031791008316031342086B
:1011E600831603179000003083160313C5000030E2
:1011F600C4000030C3000030C2000030831603175D
:101206009A000030990000309800003097009C0149
:1012160092291C0803191029112940290130831627
:101226000313C600031083160317900D910D920D3C
:10123600930D83160313C60B15290130C600031040
:10124600C20DC30DC40DC50DC60B22298316031787
:101256009A1F2E292F29322983160313421401308F
:101266000313C600031083160317970D980D990DE7
:101276009A0D83160313C60B3529031341088316EB
:1012860003171302031D5D298316031340088316F3
:1012960003171202031D5D29831603133F088316E5
:1012A60003171102031D5D29831603133E088316D7
:1012B60003171002031C602961298A291A1783164D
:1012C60003133E08831603179002831603133F0881
:1012D600031C3F0F6F297229831603179102831689
:1012E60003134008031C400F79297C298316031732
:1012F6009202831603134108031C410F8329862992
:1013060083160317930283160313831603170130FC
:1013160083160313C6004608831603179C071A3064
:101326001C02031C972998290C291308120411047E
:10133600100403199F29A029CA291714CA290130A4
:10134600C6000310C20DC30DC40DC50DC60BA429DE
:10135600831603179A1FB029B129B42983160313DC
:10136600421401300313C600031083160317970DAA
:10137600980D990D9A0D83160313C60BB729FF30E6
:101386008316031795070318960AFF3096078316E8
:101396000313C41FCF29D029A229831603179C0142
:1013A6009A1FD629D729032AFF3017058316031358
:1013B600C600FF3083160317180583160313C700EC
:1013C600FF3083160317190583160313C8007F30F1
:1013D600831603171A0583160313C9004908480420
:1013E600470446040319F829F929FE298316031729
:1013F6009C019C0A032A421C012A022A032AF92973
:10140600831603171C080319092A0A2A3F2A0130E2
:1014160083160313C207003003180130C3070030D8
:1014260003180130C407003003180130C507451CF6
:101436001D2A1E2A3F2A4208C6004308C700440840
:10144600C8004508C9000130CA00490DC90CC80CBE
:10145600C70CC60CCA0B282A4908C5004808C40090
:101466004708C3004608C2000130831603179507D4
:101476000318960A00309607831603171608803A53
:10148600FF0080307F02031D4A2AFF301502031C2D
:101496004D2A4E2A5E2AFF30831603179500003028
:1014A6009600003083160313C5000030C4000030D8
:1014B600C3000030C200831603171608803AFF00E7
:1014C60080307F02031D692A0130150203186C2A39
:1014D6006D2A7E2A8316031795019601003083161E
:1014E6000313C5000030C4000030C3000030C20042
:1014F600831603179401831603171508831603131F
:10150600C6004608831603179B001B1C8B2A8C2AD1
:10151600902A83160313C417962A7F308316031363
:10152600C6004608C405831603171B088316031353
:10153600C6000310460CC7004708C50083160317EC
:10154600140883160313C6004608C504A528080018
:10155600831603172008803983160313CB004B0824
:1015660083160317A500200883160313CB004B0729
:10157600CC004C0883160317AB009F1FC32AC42A4E
:10158600C52A2B142B080319C92ACA2AD92A2B0AB9
:10159600031DCE2ACF2AD72A0030A00000309F0094
:1015A60000309E0000309D009F17E12A0030A00009
:1015B60000309F0000309E0000309D0024088039D6
:1015C60083160313CB004B0883160317A5062408BE
:1015D60083160313CB004B07CC004C088316031766
:1015E600A600A31FF72AF82AF92A261426080319A3
:1015F600FD2AFE2A0D2B260A031D022B032B0B2B7D
:101606000030A4000030A3000030A2000030A1008A
:10161600A317152B0030A4000030A3000030A20051
:101626000030A10026080319192B1A2B1F2B2B0893
:10163600031D1E2B1F2B282B0030A00000309F00FF
:1016460000309E0000309D00FF2F1D0883160313F7
:10165600CB004B08B0008316031723080A168A111D
:101666002C200A128A1583160313310883160317D2
:10167600B10083160313300883160317B000300831
:1016860083160313CB00CC01CD01CE014E08831681
:101696000317AA00831603134D0883160317A90020
:1016A600831603134C0883160317A8008316031327
:1016B6004B0883160317A700310883160313CB00C4
:1016C600CC01CD01CE014E0883160317AF00831659
:1016D60003134D0883160317AE00831603134C0835
:1016E60083160317AD00831603134B0883160317DF
:1016F600AC001E0883160313CB004B08B0008316FC
:10170600031722080A168A112C200A128A15831634
:101716000313310883160317B10083160313300829
:1017260083160317B000300883160313CB00CC01D1
:10173600CD01CE014B0883160317A70783160313A3
:101746004C0803110318013E0319AC2B831603172B
:10175600A807831603134D0803110318013E031946
:10176600B72B83160317A907831603134E08031115
:101776000318013E0319C22B83160317AA07831603
:10178600031383160317310883160313CB00CC010A
:10179600CD01CE014B0883160317AC07831603133E
:1017A6004C0803110318013E0319DC2B831603179B
:1017B600AD07831603134D0803110318013E0319E1
:1017C600E72B83160317AE07831603134E08031180
:1017D6000318013E0319F22B83160317AF0783166E
:1017E6000313831603171F0883160313CB004B0836
:1017F600B0008316031721080A168A112C200A1234
:101806008A1583160313310883160317B10083164E
:101816000313300883160317B0003008831603132A
:10182600CB00CC01CD01CE014B0883160317A707C9
:10183600831603134C0803110318013E0319262CC3
:1018460083160317A807831603134D0803110318FD
:10185600013E0319312C83160317A90783160313B8
:101866004E0803110318013E03193C2C8316031777
:10187600AA07831603138316031731088316031367
:10188600CB00CC01CD01CE014B0883160317AC0764
:10189600831603134C0803110318013E0319562C33
:1018A60083160317AD07831603134D080311031898
:1018B600013E0319612C83160317AE078316031323
:1018C6004E0803110318013E03196C2C83160317E7
:1018D600AF07831603138316031708308316031303
:1018E600CB00031083160317A70DA80DA90DAA0D8B
:1018F60083160313CB0B742C831603171E0883164B
:101906000313CB004B08B0008316031721080A16F1
:101916008A112C200A128A1583160313310883169E
:101926000317B10083160313300883160317B0009C
:10193600300883160313CB0083160317310883166A
:101946000313CC00CD01CE014B0883160317A7075E
:10195600831603134C0803110318013E0319B62C12
:1019660083160317A807831603134D0803110318DC
:10197600013E0319C12C83160317A9078316031307
:101986004E0803110318013E0319CC2C83160317C6
:10199600AA0783160313831603171D08831603135A
:1019A600CB004B08B0008316031722080A168A11CB
:1019B6002C200A128A15831603133108831603177F
:1019C600B10083160313300883160317B0003008DE
:1019D60083160313CB0083160317310883160313EC
:1019E600CC00CD01CE014B0883160317A70783163B
:1019F60003134C0803110318013E0319052D831622
:101A06000317A807831603134D0803110318013E95
:101A16000319102D83160317A907831603134E08FF
:101A260003110318013E03191B2D83160317AA077A
:101A36008316031383160317083083160313CB008C
:101A4600031083160317A70DA80DA90DAA0D83165B
:101A56000313CB0B232D831603171D0883160313BD
:101A6600CB004B08B0008316031721080A168A110B
:101A76002C200A128A1583160313310883160317BE
:101A8600B10083160313300883160317B00030081D
:101A960083160313CB00831603173108831603132B
:101AA600CC00CD01CE014B0883160317A70783167A
:101AB60003134C0803110318013E0319652D831601
:101AC6000317A807831603134D0803110318013ED5
:101AD6000319702D83160317A907831603134E08DF
:101AE60003110318013E03197B2D83160317AA075A
:101AF60083160313831603171E0883160313CB00DE
:101B06004B08B0008316031723080A168A112C20E7
:101B16000A128A1583160313310883160317B100B8
:101B260083160313300883160317B0003008831694
:101B36000313CB0083160317310883160313CC0057
:101B4600CD01CE014B0883160317AC07831603138A
:101B56004C0803110318013E0319B42D831603170D
:101B6600AD07831603134D0803110318013E03192D
:101B7600BF2D83160317AE07831603134E080311F2
:101B86000318013E0319CA2D83160317AF078316E0
:101B96000313831603171F0883160313CB004B0882
:101BA600B0008316031722080A168A112C200A127F
:101BB6008A1583160313310883160317B10083169B
:101BC6000313300883160317B00030088316031377
:101BD600CB0083160317310883160313CC00CD01FF
:101BE600CE014B0883160317AC07831603134C0864
:101BF60003110318013E0319032E83160317AD07BD
:101C0600831603134D0803110318013E03190E2E04
:101C160083160317AE07831603134E080311031822
:101C2600013E0319192E83160317AF0783160313F4
:101C3600831603171F0883160313CB004B08B00047
:101C46008316031723080A168A112C200A128A15EE
:101C560083160313310883160317B1008316031383
:101C6600300883160317B000300883160313CB0021
:101C760083160317310883160313CC00CD01CE015A
:101C860008300310CB0DCC0DCD0DCE0DFF3E031D40
:101C9600442E4B0883160317AC07831603134C0810
:101CA60003110318013E03195B2E83160317AD07B4
:101CB600831603134D0803110318013E0319662EFC
:101CC60083160317AE07831603134E080311031872
:101CD600013E0319712E83160317AF0783160313EC
:101CE60083160317270883160313CB0083160317DF
:101CF600280883160313CC008316031729088316B6
:101D06000313CD00831603172A0883160313CE0088
:101D160018300310CE0CCD0CCC0CCB0CFF3E031DA3
:101D26008C2E4B0883160317AC07831603134C0837
:101D360003110318013E0319A32E83160317AD07DB
:101D4600831603134D0803110318013E0319AE2E23
:101D560083160317AE07831603134E0803110318E1
:101D6600013E0319B92E83160317AF078316031313
:101D760083160317083083160313CB00031083164C
:101D86000317A70DA80DA90DAA0D83160313CB0BD8
:101D9600C12E831603172B08260783160313CB00C1
:101DA600CC01CC0D4B08823E83160317B000831678
:101DB60003134C080318013EFF3E83160317B100B8
:101DC600112F013083160313CB000310831603175C
:101DD600AC0DAD0DAE0DAF0D83160313CB0BE82E78
:101DE60083160317AA1FF82EF92EFA2E2C1401308B
:101DF60083160313CB00031083160317A70DA80D34
:101E0600A90DAA0D83160313CB0BFE2EFF308316E6
:101E16000317B0070318B10AFF30B107AE1F142F1E
:101E2600152FE42EA601AA1F192F1A2F482FFF30AF
:101E3600270583160313CB00FF30831603172805E7
:101E460083160313CC00FF30831603172905831668
:101E56000313CD007F30831603172A058316031359
:101E6600CE004E084D044C044B0403193B2F3C2F67
:101E7600412F83160317A601A60A482F83160317B8
:101E86002C1C462F472F482F3C2F260803194C2F72
:101E96004D2F9A2F0130AC07003003180130AD07E3
:101EA600003003180130AE07003003180130AF07C9
:101EB6002F1C5E2F5F2F9A2F2C0883160313CB003F
:101EC600831603172D0883160313CC0083160317F6
:101ED6002E0883160313CD00831603172F088316C7
:101EE6000313CE000130CF004E0DCE0CCD0CCC0C22
:101EF600CB0CCF0B772F4E0883160317AF00831634
:101F060003134D0883160317AE00831603134C08FC
:101F160083160317AD00831603134B0883160317A6
:101F2600AC000130B0070318B10A0030B107310820
:101F3600803AFF0080307F02031DA32FFF3030025E
:101F4600031CA62FA72FB22F7F3083160317AF00CF
:101F56008030AE000030AD000030AC00EF2F8316AD
:101F660003173108803AFF0080307F02031DBD2F22
:101F7600013030020318C02FC12FCD2F0030831639
:101F86000317AF000030AE000030AD000030AC00EB
:101F9600A501EF2F83160317300883160313CB0012
:101FA6004B0883160317AB00FF30AC05FF30AD05B9
:101FB6007F30AE050030AF052B1CE22FE32FE42F58
:101FC600AE172B0883160313CB0003104B0CCC0063
:101FD6004C0883160317AF00250883160313CB009E
:101FE6004B0883160317AF042F08A0002E089F0086
:0A1FF6002D089E002C089D00080035
:10200A00F800F401F5017008F200F3017208F60015
:10201A007308F700781C1228132819287608F40781
:10202A000318F50A7708F50701300310F60DF70DC6
:10203A00FF3E031D1A280310F80C7808031D2628F2
:10204A0027280F287508F1007408F0000800831685
:10205A000313B800B401B5013008B200B301320865
:10206A00B6003308B700381C3B283C2842283608FB
:10207A00B4070318B50A3708B50701300310B60DBF
:10208A00B70DFF3E031D43280310B80C3808031D83
:10209A004F28502838283508B1003408B000080005
:1020AA0083120313861F5A285B289A290C1F5E285D
:1020BA005F2821291F0C83160313AB002B0C0F3941
:1020CA00003A031D69286A288628A501FF30AB005B
:1020DA002B08A6001930A7000030A8009730A900E5
:1020EA000030AA00831203131E080A168A158121DA
:1020FA000A168A11831603132608D7002508D60064
:10210A001D29831203131F0C83160313AB002B0C18
:10211A000F39013A031D92289328AF28A501FF30F1
:10212A00AB002B08A6001930A7000030A800973092
:10213A00A9000030AA00831203131E080A168A1582
:10214A0081210A168A11831603132608D500250849
:10215A00D4001D29831203131F0C83160313AB002B
:10216A002B0C0F39023A031DBB28BC28E628A5010F
:10217A00FF30AB002B08A6001930A7000030A800DA
:10218A009730A9000030AA00831203131E080A160A
:10219A008A1581210A168A11831603132608D30089
:1021AA002508D200FC305205AB0000305305AC00C4
:1021BA002B08023ED2002C080318013E003ED30031
:1021CA001D29831203131F0C83160313AB002B0C58
:1021DA000F39033A031DF228F3281D29A501FF3000
:1021EA00AB002B08A6001930A7000030A800583011
:1021FA00A9000030AA00831203131E080A168A15C2
:10220A0081210A168A11831603132608D10025088C
:10221A00D000FC305005AB0000305105AC002B0853
:10222A00033ED0002C080318013E003ED1001D29B0
:10223A00831203130C130C2A0B1C24292529762933
:10224A000618282929294929831603135F03031D20
:10225A002F29302935290230AB002B08DF007429D9
:10226A0002305F06031D3A293B2940290330AB009F
:10227A002B08DF00742903305F06031D4529462910
:10228A007429DF01DF0A742986184C294D295F2930
:10229A000330831603135F06031D542955295A294F
:1022AA0083160317DD01DD0A742983160317DF017C
:1022BA00DF0A7429061962296329742903308316EF
:1022CA0003135F06031D6A296B29702983160317F6
:1022DA00DC01DC0A742983160317DE01DE0A0B10FF
:1022EA000C2A8C1E79297A290C2A023083160313A8
:1022FA005F06031D812982298F29831203131A0875
:10230A0083160313AB002B08DA005A08AB002B081C
:10231A00D9000C2A831203131A0883160313AB007D
:10232A002B0883160317DB000C2A8C1D9D299E2976
:10233A000C2A130883160313AB002B08DD005D0873
:10234A000339AB002B08DE005D08FC39AB002B0813
:10235A00DD0002305E06031DB329B429D2295D08C7
:10236A00AB0002300310AB0CFF3E031DB7292B084C
:10237A00831203139500831603135D080339AB0018
:10238A00AB0E831203131708831603132B06CF39D8
:10239A002B068312031397000A2A03305E06031DD5
:1023AA00D729D8290A2A5D08AB0002300310AB0CE2
:1023BA00FF3E031DDB292B08831203139B008316A0
:1023CA0003135D080139AB00AB0E831203131D081A
:1023DA00831603132B06EF392B06831203139D0072
:1023EA00831603135D08AB0003102B0C0139AC00F4
:1023FA00AC0EAC0D831203131D08831603132C06AF
:10240A00DF392C06831203139D0083128C11831665
:10241A0003132F08FF002E088A002D0E8300FE0EDC
:10242A007E0E09008316031735088039BA003A0868
:10243A00C2003508BA003A07BB003B08C400B41F03
:10244A00272A282A292A4414440803192D2A2E2A1D
:10245A003E2A440A031D322A332A3B2A0030B50099
:10246A000030B4000030B3000030B200B417B50138
:10247A00462A0030B5000030B4000030B300003006
:10248A00B20039088039BA003A08C3004308420644
:10249A000319502A512A522A42173908BA003A0710
:1024AA00BB003B08C300B81F5B2A5C2A5D2A4314A1
:1024BA0043080319612A622A722A430A031D662AFB
:1024CA00672A6F2A0030B9000030B8000030B70020
:1024DA000030B600B817B9017A2A0030B9000030C6
:1024EA00B8000030B7000030B600440843020318B1
:1024FA007F2A802AC42A421F832A842A882A803073
:10250A00BA003A08C2064408BA003A08C5004308A5
:10251A00BA003A08C4004508BA003A08C3003208AB
:10252A00BA003A08C5003608BA003A08B2004508A7
:10253A00BA003A08B6003308BA003A08C5003708A4
:10254A00BA003A08B3004508BA003A08B700340896
:10255A00BA003A08C5003808BA003A08B400450873
:10256A00BA003A08B8003508BA003A08C50039086E
:10257A00BA003A08B5004508BA003A08B900C501D8
:10258A004308BA00BB013B08BD0044083A02BC003C
:10259A00031CBD033D08803AFF0080307F02031D03
:1025AA00D82A1A303C02031CDB2ADC2A192B831690
:1025BA0003173508340433043204031DE52AE72AD5
:1025CA000130E82A0030BA003A08C5000030B500E8
:1025DA000030B4000030B3000030B2004308BA0043
:1025EA003A08C400212B451CFB2AFC2A052B450866
:1025FA00BA0003103A0C0138BB003B08C500072B90
:10260A000310C50C321C0A2B0B2B0C2BC5170130DF
:10261A00BA00350DB50CB40CB30CB20CBA0B0E2BB8
:10262A000130BA003A08C407831603174308440264
:10263A00031C202B212BF82A421B242B252B702B21
:10264A004408031D292B2A2B332B0030B5000030F8
:10265A00B4000030B3000030B2009E2C3608B20736
:10266A00370803110318013E03193C2BB307380836
:10267A0003110318013E0319432BB4073908031148
:10268A000318013E03194A2BB507351C4D2B4E2B57
:10269A00242C451C512B522B5B2B4508BA000310E6
:1026AA003A0C0138BB003B08C5005D2B0310C50C72
:1026BA00321C602B612B622BC5170130BA00350D15
:1026CA00B50CB40CB30CB20CBA0B642B0130BA00C3
:1026DA003A08C407242C3508803AFF003908803AA2
:1026EA007F02031D822B38083402031D822B370810
:1026FA003302031D822B360832020318852B862BE0
:10270A00DE2BFF30BA00FF30BB00FF30BC00FF30C9
:10271A00BD003608BE003708BF003808C0003908B7
:10272A00C1003208BE023308031C330F9D2B9E2BB7
:10273A00BF023408031C340FA32BA42BC002350894
:10274A00031C350FA92BAA2BC1023E08BA073F0862
:10275A0003183F0FB12BB22BBB0740080318400FD9
:10276A00B72BB82BBC0741080318410ABD073D081F
:10277A00B5003C08B4003B08B3003A08B200803008
:10278A00BA003A08C206C509C50A4508031DCE2B78
:10279A00CF2BEC2B0130B207003003180130B307FE
:1027AA00003003180130B407003003180130B507B0
:1027BA00EC2B3608B2023708031C370FB30238086D
:1027CA00031C380FB4023908031C390FB502350847
:1027DA00340433043204031DF32BF42B202C450854
:1027EA00031DF82BF92B202C0030B5000030B40063
:1027FA000030B3000030B2009E2C0130BA00031042
:10280A00B20DB30DB40DB50DBA0B042CC51F0E2CA9
:10281A000F2C102C3214451C132C142C172C0314B7
:10282A00C50D192C0310C50D440803191D2C1E2CA7
:10283A00202C0130C402B41F232C242C022CC301E7
:10284A00C51F282C292C372C45087F3903192E2C13
:10285A002F2C322CC301C30A372C321C352C362CB0
:10286A00372C2F2C430803193B2C3C2C702C01309D
:10287A00B207003003180130B307003003180130E3
:10288A00B407003003180130B507351C4D2C4E2C07
:10289A00702C3208BA003308BB003408BC00350873
:1028AA00BD000130BE003D0DBD0CBC0CBB0CBA0C0A
:1028BA00BE0B582C3D08B5003C08B4003B08B300D9
:1028CA003A08B200440A03196B2C6C2C702C0130A4
:1028DA00BA003A08C407440A0319742C752C7A2CD6
:1028EA004408031D792C7A2C882C0030B50000305E
:1028FA00B4000030B3000030B2004408031D862C37
:10290A00872C882CC201441C8B2C8C2C8E2CB4173F
:10291A00922C7F30BA003A08B4054408BA00031072
:10292A003A0CBB003B08B500C21F9C2C9D2C9E2C68
:10293A00B5170800831203133D088039C200420804
:10294A00C7003D08C2004207C3004308CD00BC1FB0
:10295A00AF2CB02CB12C4D144D080319B52CB62C44
:10296A00C52C4D0A031DBA2CBB2CC32C0030BD004C
:10297A000030BC000030BB000030BA00BC17CD2CC0
:10298A000030BD000030BC000030BB000030BA008F
:10299A0041088039C2004208C7064108C2004207FE
:1029AA00C3004308CC00C01FDB2CDC2CDD2C4C14EC
:1029BA004C080319E12CE22CF12C4C0A031DE62CDD
:1029CA00E72CEF2C0030C1000030C0000030BF00FF
:1029DA000030BE00C017F92C0030C1000030C00022
:1029EA000030BF000030BE004C080319FD2CFE2C3D
:1029FA00032D4D08031D022D032D0C2D0030BD00A3
:102A0A000030BC000030BB000030BA00FF2F3A088B
:102A1A00C2004208F00040080A168A1105200A1668
:102A2A008A11710883120313D3007008D200520866
:102A3A00C200C301C401C5014508CB004408CA004D
:102A4A004308C9004208C8005308C200C301C401B0
:102A5A00C5014508D1004408D0004308CF00420808
:102A6A00CE003B08C2004208F0003F080A168A114D
:102A7A0005200A168A11710883120313D3007008FD
:102A8A00D2005208C200C301C401C5014208C807E6
:102A9A00430803110318013E0319542DC9074408BA
:102AAA0003110318013E03195B2DCA0745080311D8
:102ABA000318013E0319622DCB075308C200C30154
:102ACA00C401C5014208CE07430803110318013E99
:102ADA000319702DCF07440803110318013E031987
:102AEA00772DD007450803110318013E03197E2DDF
:102AFA00D1073C08C2004208F0003E080A168A11B3
:102B0A0005200A168A11710883120313D30070086C
:102B1A00D2005208C200C301C401C5014208C80755
:102B2A00430803110318013E03199C2DC9074408E1
:102B3A0003110318013E0319A32DCA0745080311FF
:102B4A000318013E0319AA2DCB075308C200C3017B
:102B5A00C401C5014208CE07430803110318013E08
:102B6A000319B82DCF07440803110318013E0319AE
:102B7A00BF2DD007450803110318013E0319C62DBE
:102B8A00D1070830C2000310C80DC90DCA0DCB0DFC
:102B9A00C20BC82D3B08C2004208F0003E080A16C4
:102BAA008A1105200A168A11710883120313D300A9
:102BBA007008D2005208C2005308C300C401C501FC
:102BCA004208C807430803110318013E0319EE2DF2
:102BDA00C907440803110318013E0319F52DCA0752
:102BEA00450803110318013E0319FC2DCB073A08C7
:102BFA00C2004208F0003F080A168A1105200A1688
:102C0A008A11710883120313D3007008D200520884
:102C1A00C2005308C300C401C5014208C8074308DB
:102C2A0003110318013E03191B2EC9074408031197
:102C3A000318013E0319222ECA0745080311031877
:102C4A00013E0319292ECB070830C2000310C80D14
:102C5A00C90DCA0DCB0DC20B2B2E3A08C200420871
:102C6A00F0003E080A168A1105200A168A11710810
:102C7A0083120313D3007008D2005208C20053080B
:102C8A00C300C401C5014208C80743080311031859
:102C9A00013E0319512EC907440803110318013EC6
:102CAA000319582ECA07450803110318013E0319D0
:102CBA005F2ECB073B08C2004208F00040080A1604
:102CCA008A1105200A168A11710883120313D30088
:102CDA007008D2005208C2005308C300C401C501DB
:102CEA004208CE07430803110318013E03197E2E3A
:102CFA00CF07440803110318013E0319852ED00794
:102D0A00450803110318013E03198C2ED1073C080C
:102D1A00C2004208F0003F080A168A1105200A1666
:102D2A008A11710883120313D3007008D200520863
:102D3A00C2005308C300C401C5014208CE074308B4
:102D4A0003110318013E0319AB2ECF0744080311E0
:102D5A000318013E0319B22ED007450803110318C0
:102D6A00013E0319B92ED1073C08C2004208F000FF
:102D7A0040080A168A1105200A168A117108831258
:102D8A000313D3007008D2005208C2005308C300CC
:102D9A00C401C50108300310C20DC30DC40DC50D11
:102DAA00FF3E031DD02E4208CE0743080311031825
:102DBA00013E0319E12ECF07440803110318013E0F
:102DCA000319E82ED007450803110318013E031919
:102DDA00EF2ED1074808C2004908C3004A08C400B8
:102DEA004B08C50018300310C50CC40CC30CC20C28
:102DFA00FF3E031DF82E4208CE07430803110318AD
:102E0A00013E0319092FCF07440803110318013E95
:102E1A000319102FD007450803110318013E03199F
:102E2A00172FD1070830C2000310C80DC90DCA0DEB
:102E3A00CB0DC20B192F4D084C07C200C301C30D9D
:102E4A004208823ED20043080318013EFF3ED300E7
:102E5A004B2F0130C2000310CE0DCF0DD00DD10D76
:102E6A00C20B302FCB1F3A2F3B2F3C2F4E14013071
:102E7A00C2000310C80DC90DCA0DCB0DC20B3E2FDF
:102E8A00FF30D2070318D30AFF30D307D01F4E2FC3
:102E9A004F2F2E2FCC01CB1F532F542F702FFF30C3
:102EAA004805C200FF304905C300FF304A05C40087
:102EBA007F304B05C5004508440443044204031906
:102ECA00672F682F6B2FCC01CC0A702F4E1C6E2FE8
:102EDA006F2F702F682F4C080319742F752FA62F88
:102EEA000130CE07003003180130CF070030031835
:102EFA000130D007003003180130D107511C862F4A
:102F0A00872FA62F4E08C2004F08C3005008C400DE
:102F1A005108C5000130C600450DC50CC40CC30CD0
:102F2A00C20CC60B912F4508D1004408D0004308B3
:102F3A00CF004208CE000130D2070318D30A00306E
:102F4A00D3075308803AFF0080307F02031DAF2F5A
:102F5A00FF305202031CB22FB32FBE2F7F308312D1
:102F6A000313D1008030D0000030CF000030CE00F3
:102F7A00F32F831203135308803AFF0080307F0235
:102F8A00031DC92F013052020318CC2FCD2FD92F80
:102F9A00003083120313D1000030D0000030CF007C
:102FAA000030CE00C701F32F831203135208C20068
:102FBA004208CD00FF30CE05FF30CF057F30D00567
:102FCA000030D1054D1CEA2FEB2FEC2FD0174D08FE
:102FDA00C2000310420CC3004308D1004708C200D4
:102FEA004208D1045108BD005008BC004F08BB007C
:062FFA004E08BA000800B9
:1031940083160313B1003108831203178D008316BD
:1031A40003133008831203178C00831603178C1340
:1031B4000C158B1355308D00AA308D008C140C1116
:1031C4000B108B1708000310831203136A0D6B0D89
:1031D40083160313A000200883120313ED006D0867
:1031E400031DF528F628FF280030EB000030EA0024
:1031F4000030E9000030E8008029680883160313D2
:10320400A00083120313690883160313A100831219
:1032140003136A0883160313A200831203136B08B3
:1032240083160313A3001F300310A30CA20CA10CDC
:10323400A00CFF3E031D16292008A40024088312B5
:103244000313EC00EA17FF30E805FF30E905FF300F
:10325400EA050030EB059630ED02ED1F32293329E3
:1032640051296D08803A973E031839293A293B2998
:10327400F62801300310EB0CEA0CE90CE80CFF3ED5
:10328400031D3C29013083160313A0002008831278
:103294000313ED07031D4F2950293B2970292030C2
:1032A4006D02031C562957296B29F6280130831611
:1032B4000313A000031083120313E80DE90DEA0DB4
:1032C400EB0D83160313A00B5C2901308312031347
:1032D400ED026D08031D6F29702958296C08031924
:1032E400742975298029E809E909EA09EB09E80A3A
:1032F4000319E90A0319EA0A0319EB0A08008312FD
:103304000313EE00831603132708F0002808F100C6
:10331400F201F30100300A168A1533220A168A15BF
:10332400730883120313DB007208DA007108D900F2
:103334007008D8008316031327082902F000280810
:10334400031C280A2A02F100F201F30100300A16D4
:103354008A1533220A168A15730883120313A700E9
:103364007208A6007108A5007008A4008316031350
:1033740025082602F000F101031CF103F201F11B00
:10338400F2037208F30001300A168A1533220A1672
:103394008A15730883120313A3007208A20071082C
:1033A400A1007008A0000A128A1196250A168A152F
:1033B400831203132308C1002208C0002108BF00A0
:1033C4002008BE00831603132508831203136E021C
:1033D400F000F101031CF103F201F11BF203720886
:1033E400F30001300A168A1533220A168A15730867
:1033F40083120313BD007208BC007108BB0070087F
:10340400BA000A168A119F240A168A158312031316
:103414003D08D7003C08D6003B08D5003A08D40044
:103424000A168A1578250A168A1583120313570873
:10343400EB005608EA005508E9005408E8000A16AB
:103444008A15E5200A168A15831203136908831660
:103454000313A60083120313680883160313A5003D
:103464000800F80078080319382A392A4D2AF31F6E
:103474003C2A3D2A4D2A7009FA007109FB007209A1
:10348400FC007309FD00FA0A0319FB0A0319FC0A7C
:103494000319FD0A552A7308FD007208FC0071081F
:1034A400FB007008FA007308720471047004031DB1
:1034B4005C2A5D2A662A0030F3000030F2000030F6
:1034C400F1000030F000EC2A9630F4007408F900A2
:1034D400782A0130F4007408F90701300310FD0C58
:1034E400FC0CFB0CFA0CFF3E031D702AFE307D051C
:1034F400031D7D2A7E2A6B2A9A2A0130F40074085F
:10350400F9070130FA07003003180130FB070030D7
:1035140003180130FC07003003180130FD070130A7
:103524000310FD0CFC0CFB0CFA0CFF3E031D922A4D
:10353400FF307D05031D9F2AA02A7F2AAC2A013073
:10354400F9020130F4000310FA0DFB0DFC0DFD0D22
:10355400F40BA52AFC1BAF2AB02AB62A0230790242
:103564000318B52AB62AA12A7918B92ABA2AC22A6E
:10357400FF30FA05FF30FB057F30FC05FF30FD0509
:103584000310F90C7908F400F501F601F70118307D
:103594000310F40DF50DF60DF70DFF3E031DCA2AB9
:1035A4007408FA047508FB047608FC047708FD0423
:1035B40078080319DE2ADF2AE42AF31FE22AE32A21
:1035C400E42AFD177D08F3007C08F2007B08F10073
:1035D4007A08F000080083160313B80038080319AA
:1035E400F42AF52A092BB31FF82AF92A092B3009E2
:1035F400BA003109BB003209BC003309BD00BA0A64
:103604000319BB0A0319BC0A0319BD0A112B330899
:10361400BD003208BC003108BB003008BA003308D2
:10362400320431043004031D182B192B222B0030D3
:10363400B3000030B2000030B1000030B000A82B5D
:103644009630B4003408B900342B0130B400340887
:10365400B90701300310BD0CBC0CBB0CBA0CFF3E07
:10366400031D2C2BFE303D05031D392B3A2B272B34
:10367400562B0130B4003408B9070130BA070030C2
:1036840003180130BB07003003180130BC070030B9
:1036940003180130BD0701300310BD0CBC0CBB0C7A
:1036A400BA0CFF3E031D4E2BFF303D05031D5B2B63
:1036B4005C2B3B2B682B0130B9020130B4000310A2
:1036C400BA0DBB0DBC0DBD0DB40B612BBC1B6B2B1C
:1036D4006C2B722B023039020318712B722B5D2B69
:1036E4003918752B762B7E2BFF30BA05FF30BB05BE
:1036F4007F30BC05FF30BD050310B90C3908B40098
:10370400B501B601B70118300310B40DB50DB60DEF
:10371400B70DFF3E031D862B3408BA043508BB04DD
:103724003608BC043708BD04380803199A2B9B2BB0
:10373400A02BB31F9E2B9F2BA02BBD173D08B300BE
:103744003C08B2003B08B1003A08B00008008316F8
:103754000317D700530883160313B0008316031707
:10376400540883160313B100B201B30100300A16E2
:103774008A15ED220A168A15831603133308831655
:103784000317B90083160313320883160317B8000E
:1037940083160313310883160317B7008316031324
:1037A400300883160317B600530855028316031313
:1037B400B000831603175408031C540A56028316D8
:1037C4000313B100B201B30100300A168A15ED22C9
:1037D4000A168A15831603133308C5003208C40079
:1037E4003108C3003008C20083160317510852027F
:1037F40083160313B000B101031CB103B201B11B62
:10380400B2033208B30001300A168A15ED220A16F3
:103814008A15831603133308C1003208C000310827
:10382400BF003008BE000A128A150B200A168A153A
:1038340083160313410883160317A4008316031386
:10384400400883160317A300831603133F08831647
:103854000317A200831603133E0883160317A1005F
:103864005108570283160313B000B101031CB103BE
:10387400B201B11BB2033208B30001300A168A1533
:10388400ED220A168A1583160313330883160317C9
:10389400A000831603133208831603179F008316B0
:1038A40003133108831603179E008316031330088D
:1038B400831603179D000A128A15AB220A168A156D
:1038C400831603172008B5001F08B4001E08B300B0
:1038D4001D08B2000A168A1117220A168A158316C1
:1038E40003173508C9003408C8003308C700320874
:1038F400C6000A128A1173270A168A15831603173B
:103904004708D2004608D1000800831603130F08A5
:103914008F3940388F000F148801831203138801F4
:10392400861F952C962C262D8316031789010F309C
:103934008800831603138711071687120F3085003A
:10394400831203138501FF3083160313860081134A
:103954000730950089010430831203138900F03085
:1039640094051412941683160313141794178312D0
:10397400031393013F309F05831603131F129F12F5
:10398400C330831203139F05831603139F138312FB
:1039940003131F14023083160313B000B00BD02C92
:1039A40000003E308316031392000715831203139D
:1039B40097013F3097051708F0390C389700063007
:1039C40095001708CF39103897008316031387140E
:1039D400831203139D011D08F0390C389D00063035
:1039E4009B001D169D128C100330920412158C1C22
:1039F400FC2CFD2CF92C8C10831603130711871053
:103A04001812181583160317871519308316031314
:103A140099009A018312031398178316031318133A
:103A240098168312031318160B178B178316031398
:103A34008C168B15073096000B10831203130C138E
:103A4400831603130C17772D831603178801890136
:103A54001830831603138700831203138701203061
:103A64008316031385008312031385011408F039A8
:103A74000438940014129416831603131417941321
:103A84003E30920007158312031397013F309705C8
:103A94001708F0390C389700063095001708CF390D
:103AA40010389700831603138714831203139D01A0
:103AB4001D08F0390C389D0006309B001D169D1220
:103AC4008C100330920412158C1C692D6A2D662DFE
:103AD4008C108316031307118710831203138C11A0
:103AE400831603138C150B178B170800831203130B
:103AF40057088039DC005C08E4005708DC005C07E8
:103B0400DD005D08E600D61F882D892D8A2D6614F8
:103B1400660803198E2D8F2D9F2D660A031D932D84
:103B2400942D9C2D0030D7000030D6000030D500F5
:103B34000030D400D617D701A72D0030D7000030AD
:103B4400D6000030D5000030D4005B088039DC009A
:103B54005C08E500650864060319B12DB22DB32D88
:103B640064175B08DC005C07DD005D08E500DA1F14
:103B7400BC2DBD2DBE2D651465080319C22DC32DA2
:103B8400D32D650A031DC72DC82DD02D0030DB00B1
:103B94000030DA000030D9000030D800DA17DB0139
:103BA400DB2D0030DB000030DA000030D9000030BB
:103BB400D800660865020318E02DE12D252E641F48
:103BC400E42DE52DE92D8030DC005C08E406660870
:103BD400DC005C08E7006508DC005C08E6006708B8
:103BE400DC005C08E5005408DC005C08E7005808C9
:103BF400DC005C08D4006708DC005C08D8005508C9
:103C0400DC005C08E7005908DC005C08D5006708A4
:103C1400DC005C08D9005608DC005C08E7005A08A0
:103C2400DC005C08D6006708DC005C08DA00570892
:103C3400DC005C08E7005B08DC005C08D700670870
:103C4400DC005C08DB00E7016508DC00DD015D08E1
:103C5400DF0066085C02DE00031CDF035F08803AB5
:103C6400FF0080307F02031D392E1A305E02031CD0
:103C74003C2E3D2E7A2E8312031357085604550406
:103C84005404031D462E482E0130492E0030DC001A
:103C94005C08E7000030D7000030D6000030D500C3
:103CA4000030D4006508DC005C08E600822E671C46
:103CB4005C2E5D2E662E6708DC0003105C0C013858
:103CC400DD005D08E700682E0310E70C541C6B2E22
:103CD4006C2E6D2EE7170130DC00570DD70CD60C77
:103CE400D50CD40CDC0B6F2E0130DC005C08E6072D
:103CF4008312031365086602031C812E822E592E3B
:103D0400641B852E862ED12E6608031D8A2E8B2ECB
:103D1400942E0030D7000030D6000030D50000309B
:103D2400D400FF2F5808D407590803110318013E83
:103D340003199D2ED5075A0803110318013E0319D0
:103D4400A42ED6075B0803110318013E0319AB2EFA
:103D5400D707571CAE2EAF2E852F671CB22EB32E5D
:103D6400BC2E6708DC0003105C0C0138DD005D0824
:103D7400E700BE2E0310E70C541CC12EC22EC32E26
:103D8400E7170130DC00570DD70CD60CD50CD40C3A
:103D9400DC0BC52E0130DC005C08E607852F5708D4
:103DA400803AFF005B08803A7F02031DE32E5A0825
:103DB4005602031DE32E59085502031DE32E58082D
:103DC40054020318E62EE72E3F2FFF30DC00FF30AD
:103DD400DD00FF30DE00FF30DF005808E000590846
:103DE400E1005A08E2005B08E3005408E0025508C9
:103DF400031C550FFE2EFF2EE1025608031C560F1E
:103E0400042F052FE2025708031C570F0A2F0B2F0C
:103E1400E3026008DC0761080318610F122F132FF7
:103E2400DD0762080318620F182F192FDE076308D5
:103E34000318630ADF075F08D7005E08D6005D0831
:103E4400D5005C08D4008030DC005C08E406E70997
:103E5400E70A6708031D2F2F302F4D2F0130D40799
:103E6400003003180130D507003003180130D6079D
:103E7400003003180130D7074D2F5808D4025908D1
:103E8400031C590FD5025A08031C5A0FD6025B08AB
:103E9400031C5B0FD7025708560455045404031D32
:103EA400542F552F812F6708031D592F5A2F812F07
:103EB4000030D7000030D6000030D5000030D400E8
:103EC400FF2F0130DC000310D40DD50DD60DD70D16
:103ED400DC0B652FE71F6F2F702F712F5414671C95
:103EE400742F752F782F0314E70D7A2F0310E70D25
:103EF400660803197E2F7F2F812F0130E602D61F1B
:103F0400842F852F632FE501E71F892F8A2F982F90
:103F140067087F3903198F2F902F932FE501E50A46
:103F2400982F541C962F972F982F902F65080319BC
:103F34009C2F9D2FD12F0130D4070030031801305E
:103F4400D507003003180130D607003003180130BC
:103F5400D707571CAE2FAF2FD12F5408DC005508BC
:103F6400DD005608DE005708DF000130E0005F0D79
:103F7400DF0CDE0CDD0CDC0CE00BB92F5F08D70086
:103F84005E08D6005D08D5005C08D400660A0319F3
:103F9400CC2FCD2FD12F0130DC005C08E607660A58
:103FA4000319D52FD62FDB2F6608031DDA2FDB2F3D
:103FB400E92F0030D7000030D6000030D5000030A3
:103FC400D4006608031DE72FE82FE92FE401661CDF
:103FD400EC2FED2FEF2FD617F32F7F30DC005C088A
:103FE400D6056608DC0003105C0CDD005D08D70014
:103FF400E41FFD2FFE2FFF2FD7170800FF3FFF3FC1
:04400400FF3FFF3F3C
:04400E00D420FF3F7C
:00000001FF
